"use strict";
Object.defineProperty(exports, "__esModule", { value: true });
exports.mockDataNonBitGoRecovery = exports.mockTokenTransferData = exports.mockDataUnsignedSweep = void 0;
const getTxListRequestUnsignedSweep = {
    chainid: '51',
    module: 'account',
    action: 'txlist',
    address: '0x742838193c4169f6b2ba7b0e03f723c3ba0928e1',
};
const getTxListResponseUnsignedSweep = {
    status: '1',
    result: [
        {
            hash: '0xede855d43d70ea1bb75db63d4f75113dae0845f0d4bdb0b2d8bda55249c70812',
            nonce: '23',
            from: '0x742838193c4169f6b2ba7b0e03f723c3ba0928e1',
        },
    ],
    message: 'OK',
};
const getBalanceRequestUnsignedSweep = {
    chainid: '51',
    module: 'account',
    action: 'balance',
    address: '0x742838193c4169f6b2ba7b0e03f723c3ba0928e1',
};
const getBalanceResponseUnsignedSweep = {
    status: '1',
    result: '100000000000000000',
    message: 'OK',
};
exports.mockDataUnsignedSweep = {
    userKey: '029d2ded2d39ee7cd8d8bbba8b25e4c60bb09297936fa6b223de1f495b5ee20dcaf762367f9691f7719cb5e13e59d725669a18aad1e2522dd141fa4c7fd3d25c17',
    backupKey: '029d2ded2d39ee7cd8d8bbba8b25e4c60bb09297936fa6b223de1f495b5ee20dcaf762367f9691f7719cb5e13e59d725669a18aad1e2522dd141fa4c7fd3d25c17',
    derivationPath: 'm/0',
    derivationSeed: '',
    walletBaseAddress: '0x742838193c4169f6b2ba7b0e03f723c3ba0928e1',
    recoveryDestination: '0xd76b586901850f2c656db0cbef795c0851bbec35',
    getTxListRequest: getTxListRequestUnsignedSweep,
    getTxListResponse: getTxListResponseUnsignedSweep,
    getBalanceRequest: getBalanceRequestUnsignedSweep,
    getBalanceResponse: getBalanceResponseUnsignedSweep,
};
const getTxListRequestNonBitGoRecovery = {
    chainid: '51',
    module: 'account',
    action: 'txlist',
    address: '0x4477bc3e2472b2c5580c010526dfc5614871952d',
};
const getTxListResponseNonBitGoRecovery = {
    status: '1',
    result: [
        {
            hash: '0xede855d43d70ea1bb75db63d4f75113dae0845f0d4bdb0b2d8bda55249c70812',
            nonce: '23',
            from: '0x4477bc3e2472b2c5580c010526dfc5614871952d',
        },
    ],
    message: 'OK',
};
const getBalanceRequestNonBitGoRecovery = {
    chainid: '51',
    module: 'account',
    action: 'balance',
    address: '0x4477bc3e2472b2c5580c010526dfc5614871952d',
};
const getBalanceResponseNonBitGoRecovery = {
    status: '1',
    result: '100000000000000000',
    message: 'OK',
};
// Mock data for txdc:tmt token transfer TSS transaction
exports.mockTokenTransferData = {
    txRequestId: '2475368d-f604-46e3-a743-e32f663fa350',
    walletId: '695e1ca4fb4a739c8c6f9b49120c55c7',
    serializedTxHex: 'f86a0485045d964b8083061a8094b283ec8dad644effc5c4c50bb7bb21442ac3c2db80b844a9059cbb000000000000000000000000421cdf5e890070c28db0fd8e4bf87deac0cd0ffc00000000000000000000000000000000000000000000000000000000000f4240808080',
    signableHex: 'f86a0485045d964b8083061a8094b283ec8dad644effc5c4c50bb7bb21442ac3c2db80b844a9059cbb000000000000000000000000421cdf5e890070c28db0fd8e4bf87deac0cd0ffc00000000000000000000000000000000000000000000000000000000000f4240338080',
    tokenContractAddress: '0xb283ec8dad644effc5c4c50bb7bb21442ac3c2db',
    recipientAddress: '0x421cdf5e890070c28db0fd8e4bf87deac0cd0ffc',
    senderAddress: '0x6aafaddf545f96772140f0008190c176a065df9a',
    tokenAmount: '1000000',
    feeInfo: {
        fee: 7500000000000000,
        feeString: '7500000000000000',
    },
    txPrebuild: {
        txHex: 'f86a0485045d964b8083061a8094b283ec8dad644effc5c4c50bb7bb21442ac3c2db80b844a9059cbb000000000000000000000000421cdf5e890070c28db0fd8e4bf87deac0cd0ffc00000000000000000000000000000000000000000000000000000000000f4240808080',
        recipients: [
            {
                address: '0x421cdf5e890070c28db0fd8e4bf87deac0cd0ffc',
                amount: '1000000',
            },
        ],
    },
};
exports.mockDataNonBitGoRecovery = {
    recoveryDestination: '0xd76b586901850f2c656db0cbef795c0851bbec35',
    userKeyData: '{"iv":"XeXwD5B465wYvao9WFZC7A==","v":1,"iter":10000,"ks":256,"ts":64,"mode":"ccm","adata":"","cipher":"aes","salt":"caDtzBCF3IA=","ct":"0qr0YV2DgN68F9luNpjFQhwDTIXwyTTYdQirvbgITHqIDmITmV1IMgkKIdzSZBfmLkB6bG46oVF4snVG7lXEJz2twrutI01g59xjw88ULgR5wV5ZdFrGcmNZvOQ1H5imoWGS8bVKONmeF55TBgi49r9x3dsmgWvJ/EHeApj/FrAP1BLX/Rgl57kZqnNoryl55P8L2cJtJE1weDBD+/GsggdrO/dYBmihKTWyTBVa7UBIIgV5wOd4RXbZN1Hg2Vc0bY56KrpZbY1CsdQiIwH3tkKFPdqthlHVEfS8XViaYVl0Go3C/mUMYZH7CTg/s4LMpdlWzh3iRnmGercvIFZBfcehgNVv9H/OctYZnKfUdI5mZsVGxQRIMWr8oFbmjR3pYJ94oxS8assAzl7hNI4RJi/u4N9/5VJIi//069zsMsgA+k4b3u3xvivkTjO5sscAPs/Sp0mb5QLQhP48D/sHIYwhQiThJaH+flSoUQu5LNWmucmYr08lRRiI07O7DZAY2pplLSvBfkrBtgTgi+rLN95lKkxi7PYTGWuek1Sd/XiXit6EJ5FImYH2eKEVgatYvKfj/BdNJ2iHmeaykajtjpr21lt0Iqk98iZLZfCp5w4hfHHHB4QCrBzCAeG2MEPqmrAN67z4gMxUbkI+j9lYp5SyvlFmDIm78SyQ60371Wfr+7b4+wFqPq9fumXBZ4i0xYbcWTrKjYrn5bO5o3LWiRoh7EW8mzbMIC2m/DwIwdCHodbz4g31Psnk6Yk6UqEMq5JhOoUJYuVhYthNmbRlI59UDg+rz/HO9nYnZqsUgubSKcZArqM1J4T4+EDKuHtgnCQm2hqHlsJu+/n73jU33GEm86pDdcb8udHsfPCvhEIuLw6ZyThiX8JEOCi8Ueb0GPL31MSkJ7L7cOizgp6lHgs4nZorZfUIKjDd3twcpBNXjT15KEQbrW8RQChXmVl0b5N8BAom6e9Xpz2kDRGbvbYfBOdiht5Vr5Sm7prAQVVCZTWq6/qOZFWr7LJ+Cdw1qYt64UFcBHNtaX3d5WOMNNMqesrglVTW7w2Gscu7XaxoA4cTOKvMemG1cWTag3kr8oNgtz5gXsfbSo7CJrN8vw=="}',
    backupKeyData: '{"iv":"J32VIJhO9Cbf5bqcv75Kag==","v":1,"iter":10000,"ks":256,"ts":64,"mode":"ccm","adata":"","cipher":"aes","salt":"ZQ5VsHdXM4Q=","ct":"XTgAUy8TZALKtt/PtJGAWbHfuExH5C5yw3y8EryrcY3uZdektl3WkL4KHHGTtL9yzssCTOWUMTemoAKipd+W/3mpZuQ88p+lloIgU7Tce3RLBG+gu665bsvTUuVpfMrpZHxDXXVMzwoUVHaxwfvu2tgduDnpkD/BX2RN5qfI6P6zz5r8UuWbiDPKEaqpcAHQ+RBitBQiOxNAlRNYexnUx1pCqcK08hqrqdQvx7elXXdCI3TwepGW7QwRzWa9pxvM9d85AWESueJ2B4JrZ5bkrIzXixGJcoUAJVvGfD69zoLUH9einnMafpocETBUDQyevC/j/1FwgZUCeGcb4U9N9tQJtR0fozzgpAo91nWA5UfkD2+hzRvz2p1Dmc+4bNb6s/7vK+BIOdpe4blzI43PxMLoBGkEQHlGHYCrOUnbV7dcxlyPv0qfom8K4f6/74YEKiMPjwA3sCcntWboW8gUPHF2xx/WAgmHI9DOiXsCJZMHx4GiZmY/pR9RVe/OeFAqPLWJoT6KaizTJD3So4/G5oHKPgTQbMIPi1lYtqKdOuhycISsaEgnkG1a8Tq5CN0tk5VywSmj4kSrqqjcp7kbAW+ViaNkZLuSibomK9AvuOGkEZBqDEuyFJnS4oayQTLxnstzO1JJGhmrCskH9B/QIIrUVl1IOv/IVyPg4M7T1g0+YfHdAXduLXu9bjHkqzGaSQZu35bs5QKy0bKEhAwoj+zgYAF/gZBH0/iPzrWM2xu/HMeQKwI0KFLOiBx3cMmNYE+Fb6vCjpVXBTYYUCBOjRnrAuR/lc3AnjAefCMAD89+FQ+QW5IzZv97lrSw0Rb+DIctfXddUKK7yyBe8CcZWU1dGAYsb/hk+H5lTZJBur5M3a1vzPMi68HKnRt7XZmyBsvPA8t0JVJmlc0RejqDrcps4uKjKdMaDNOvBzmEijdVv8N5q0Ng+yHwq3BolqoYn4mVJOrMuRlZt4pODkI8uOU1Ha/VStLzhT2HFexZ+Y0JzM0DS5hsygHt4Dz6/RfZTKHYvxzuRiHNLbmNcOBvVbBOL2Lm+Dlo3fFuVD3fS08vJuafc/uAfatpRwRqgE/EzvZOpnZyHcr4lUVEhRrDYw=="}',
    walletPassphrase: 'prithvishet2503',
    walletRootAddress: '0x4477bc3e2472b2c5580c010526dfc5614871952d',
    getTxListRequest: getTxListRequestNonBitGoRecovery,
    getTxListResponse: getTxListResponseNonBitGoRecovery,
    getBalanceRequest: getBalanceRequestNonBitGoRecovery,
    getBalanceResponse: getBalanceResponseNonBitGoRecovery,
};
//# sourceMappingURL=data:application/json;base64,eyJ2ZXJzaW9uIjozLCJmaWxlIjoicmVzb3VyY2VzLmpzIiwic291cmNlUm9vdCI6IiIsInNvdXJjZXMiOlsiLi4vLi4vdGVzdC9yZXNvdXJjZXMudHMiXSwibmFtZXMiOltdLCJtYXBwaW5ncyI6Ijs7O0FBQUEsTUFBTSw2QkFBNkIsR0FBMkI7SUFDNUQsT0FBTyxFQUFFLElBQUk7SUFDYixNQUFNLEVBQUUsU0FBUztJQUNqQixNQUFNLEVBQUUsUUFBUTtJQUNoQixPQUFPLEVBQUUsNENBQTRDO0NBQ3RELENBQUM7QUFFRixNQUFNLDhCQUE4QixHQUE0QjtJQUM5RCxNQUFNLEVBQUUsR0FBRztJQUNYLE1BQU0sRUFBRTtRQUNOO1lBQ0UsSUFBSSxFQUFFLG9FQUFvRTtZQUMxRSxLQUFLLEVBQUUsSUFBSTtZQUNYLElBQUksRUFBRSw0Q0FBNEM7U0FDbkQ7S0FDRjtJQUNELE9BQU8sRUFBRSxJQUFJO0NBQ2QsQ0FBQztBQUVGLE1BQU0sOEJBQThCLEdBQTJCO0lBQzdELE9BQU8sRUFBRSxJQUFJO0lBQ2IsTUFBTSxFQUFFLFNBQVM7SUFDakIsTUFBTSxFQUFFLFNBQVM7SUFDakIsT0FBTyxFQUFFLDRDQUE0QztDQUN0RCxDQUFDO0FBRUYsTUFBTSwrQkFBK0IsR0FBNEI7SUFDL0QsTUFBTSxFQUFFLEdBQUc7SUFDWCxNQUFNLEVBQUUsb0JBQW9CO0lBQzVCLE9BQU8sRUFBRSxJQUFJO0NBQ2QsQ0FBQztBQUVXLFFBQUEscUJBQXFCLEdBQUc7SUFDbkMsT0FBTyxFQUNMLG9JQUFvSTtJQUN0SSxTQUFTLEVBQ1Asb0lBQW9JO0lBQ3RJLGNBQWMsRUFBRSxLQUFLO0lBQ3JCLGNBQWMsRUFBRSxFQUFFO0lBQ2xCLGlCQUFpQixFQUFFLDRDQUE0QztJQUMvRCxtQkFBbUIsRUFBRSw0Q0FBNEM7SUFDakUsZ0JBQWdCLEVBQUUsNkJBQTZCO0lBQy9DLGlCQUFpQixFQUFFLDhCQUE4QjtJQUNqRCxpQkFBaUIsRUFBRSw4QkFBOEI7SUFDakQsa0JBQWtCLEVBQUUsK0JBQStCO0NBQ3BELENBQUM7QUFFRixNQUFNLGdDQUFnQyxHQUEyQjtJQUMvRCxPQUFPLEVBQUUsSUFBSTtJQUNiLE1BQU0sRUFBRSxTQUFTO0lBQ2pCLE1BQU0sRUFBRSxRQUFRO0lBQ2hCLE9BQU8sRUFBRSw0Q0FBNEM7Q0FDdEQsQ0FBQztBQUVGLE1BQU0saUNBQWlDLEdBQTRCO0lBQ2pFLE1BQU0sRUFBRSxHQUFHO0lBQ1gsTUFBTSxFQUFFO1FBQ047WUFDRSxJQUFJLEVBQUUsb0VBQW9FO1lBQzFFLEtBQUssRUFBRSxJQUFJO1lBQ1gsSUFBSSxFQUFFLDRDQUE0QztTQUNuRDtLQUNGO0lBQ0QsT0FBTyxFQUFFLElBQUk7Q0FDZCxDQUFDO0FBRUYsTUFBTSxpQ0FBaUMsR0FBMkI7SUFDaEUsT0FBTyxFQUFFLElBQUk7SUFDYixNQUFNLEVBQUUsU0FBUztJQUNqQixNQUFNLEVBQUUsU0FBUztJQUNqQixPQUFPLEVBQUUsNENBQTRDO0NBQ3RELENBQUM7QUFFRixNQUFNLGtDQUFrQyxHQUE0QjtJQUNsRSxNQUFNLEVBQUUsR0FBRztJQUNYLE1BQU0sRUFBRSxvQkFBb0I7SUFDNUIsT0FBTyxFQUFFLElBQUk7Q0FDZCxDQUFDO0FBRUYsd0RBQXdEO0FBQzNDLFFBQUEscUJBQXFCLEdBQUc7SUFDbkMsV0FBVyxFQUFFLHNDQUFzQztJQUNuRCxRQUFRLEVBQUUsa0NBQWtDO0lBQzVDLGVBQWUsRUFDYiwwTkFBME47SUFDNU4sV0FBVyxFQUNULDBOQUEwTjtJQUM1TixvQkFBb0IsRUFBRSw0Q0FBNEM7SUFDbEUsZ0JBQWdCLEVBQUUsNENBQTRDO0lBQzlELGFBQWEsRUFBRSw0Q0FBNEM7SUFDM0QsV0FBVyxFQUFFLFNBQVM7SUFDdEIsT0FBTyxFQUFFO1FBQ1AsR0FBRyxFQUFFLGdCQUFnQjtRQUNyQixTQUFTLEVBQUUsa0JBQWtCO0tBQzlCO0lBQ0QsVUFBVSxFQUFFO1FBQ1YsS0FBSyxFQUNILDBOQUEwTjtRQUM1TixVQUFVLEVBQUU7WUFDVjtnQkFDRSxPQUFPLEVBQUUsNENBQTRDO2dCQUNyRCxNQUFNLEVBQUUsU0FBUzthQUNsQjtTQUNGO0tBQ0Y7Q0FDRixDQUFDO0FBRVcsUUFBQSx3QkFBd0IsR0FBRztJQUN0QyxtQkFBbUIsRUFBRSw0Q0FBNEM7SUFDakUsV0FBVyxFQUNULG91Q0FBb3VDO0lBQ3R1QyxhQUFhLEVBQ1gsb3VDQUFvdUM7SUFDdHVDLGdCQUFnQixFQUFFLGlCQUFpQjtJQUNuQyxpQkFBaUIsRUFBRSw0Q0FBNEM7SUFDL0QsZ0JBQWdCLEVBQUUsZ0NBQWdDO0lBQ2xELGlCQUFpQixFQUFFLGlDQUFpQztJQUNwRCxpQkFBaUIsRUFBRSxpQ0FBaUM7SUFDcEQsa0JBQWtCLEVBQUUsa0NBQWtDO0NBQ3ZELENBQUMiLCJzb3VyY2VzQ29udGVudCI6WyJjb25zdCBnZXRUeExpc3RSZXF1ZXN0VW5zaWduZWRTd2VlcDogUmVjb3JkPHN0cmluZywgc3RyaW5nPiA9IHtcbiAgY2hhaW5pZDogJzUxJyxcbiAgbW9kdWxlOiAnYWNjb3VudCcsXG4gIGFjdGlvbjogJ3R4bGlzdCcsXG4gIGFkZHJlc3M6ICcweDc0MjgzODE5M2M0MTY5ZjZiMmJhN2IwZTAzZjcyM2MzYmEwOTI4ZTEnLFxufTtcblxuY29uc3QgZ2V0VHhMaXN0UmVzcG9uc2VVbnNpZ25lZFN3ZWVwOiBSZWNvcmQ8c3RyaW5nLCB1bmtub3duPiA9IHtcbiAgc3RhdHVzOiAnMScsXG4gIHJlc3VsdDogW1xuICAgIHtcbiAgICAgIGhhc2g6ICcweGVkZTg1NWQ0M2Q3MGVhMWJiNzVkYjYzZDRmNzUxMTNkYWUwODQ1ZjBkNGJkYjBiMmQ4YmRhNTUyNDljNzA4MTInLFxuICAgICAgbm9uY2U6ICcyMycsXG4gICAgICBmcm9tOiAnMHg3NDI4MzgxOTNjNDE2OWY2YjJiYTdiMGUwM2Y3MjNjM2JhMDkyOGUxJyxcbiAgICB9LFxuICBdLFxuICBtZXNzYWdlOiAnT0snLFxufTtcblxuY29uc3QgZ2V0QmFsYW5jZVJlcXVlc3RVbnNpZ25lZFN3ZWVwOiBSZWNvcmQ8c3RyaW5nLCBzdHJpbmc+ID0ge1xuICBjaGFpbmlkOiAnNTEnLFxuICBtb2R1bGU6ICdhY2NvdW50JyxcbiAgYWN0aW9uOiAnYmFsYW5jZScsXG4gIGFkZHJlc3M6ICcweDc0MjgzODE5M2M0MTY5ZjZiMmJhN2IwZTAzZjcyM2MzYmEwOTI4ZTEnLFxufTtcblxuY29uc3QgZ2V0QmFsYW5jZVJlc3BvbnNlVW5zaWduZWRTd2VlcDogUmVjb3JkPHN0cmluZywgdW5rbm93bj4gPSB7XG4gIHN0YXR1czogJzEnLFxuICByZXN1bHQ6ICcxMDAwMDAwMDAwMDAwMDAwMDAnLFxuICBtZXNzYWdlOiAnT0snLFxufTtcblxuZXhwb3J0IGNvbnN0IG1vY2tEYXRhVW5zaWduZWRTd2VlcCA9IHtcbiAgdXNlcktleTpcbiAgICAnMDI5ZDJkZWQyZDM5ZWU3Y2Q4ZDhiYmJhOGIyNWU0YzYwYmIwOTI5NzkzNmZhNmIyMjNkZTFmNDk1YjVlZTIwZGNhZjc2MjM2N2Y5NjkxZjc3MTljYjVlMTNlNTlkNzI1NjY5YTE4YWFkMWUyNTIyZGQxNDFmYTRjN2ZkM2QyNWMxNycsXG4gIGJhY2t1cEtleTpcbiAgICAnMDI5ZDJkZWQyZDM5ZWU3Y2Q4ZDhiYmJhOGIyNWU0YzYwYmIwOTI5NzkzNmZhNmIyMjNkZTFmNDk1YjVlZTIwZGNhZjc2MjM2N2Y5NjkxZjc3MTljYjVlMTNlNTlkNzI1NjY5YTE4YWFkMWUyNTIyZGQxNDFmYTRjN2ZkM2QyNWMxNycsXG4gIGRlcml2YXRpb25QYXRoOiAnbS8wJyxcbiAgZGVyaXZhdGlvblNlZWQ6ICcnLFxuICB3YWxsZXRCYXNlQWRkcmVzczogJzB4NzQyODM4MTkzYzQxNjlmNmIyYmE3YjBlMDNmNzIzYzNiYTA5MjhlMScsXG4gIHJlY292ZXJ5RGVzdGluYXRpb246ICcweGQ3NmI1ODY5MDE4NTBmMmM2NTZkYjBjYmVmNzk1YzA4NTFiYmVjMzUnLFxuICBnZXRUeExpc3RSZXF1ZXN0OiBnZXRUeExpc3RSZXF1ZXN0VW5zaWduZWRTd2VlcCxcbiAgZ2V0VHhMaXN0UmVzcG9uc2U6IGdldFR4TGlzdFJlc3BvbnNlVW5zaWduZWRTd2VlcCxcbiAgZ2V0QmFsYW5jZVJlcXVlc3Q6IGdldEJhbGFuY2VSZXF1ZXN0VW5zaWduZWRTd2VlcCxcbiAgZ2V0QmFsYW5jZVJlc3BvbnNlOiBnZXRCYWxhbmNlUmVzcG9uc2VVbnNpZ25lZFN3ZWVwLFxufTtcblxuY29uc3QgZ2V0VHhMaXN0UmVxdWVzdE5vbkJpdEdvUmVjb3Zlcnk6IFJlY29yZDxzdHJpbmcsIHN0cmluZz4gPSB7XG4gIGNoYWluaWQ6ICc1MScsXG4gIG1vZHVsZTogJ2FjY291bnQnLFxuICBhY3Rpb246ICd0eGxpc3QnLFxuICBhZGRyZXNzOiAnMHg0NDc3YmMzZTI0NzJiMmM1NTgwYzAxMDUyNmRmYzU2MTQ4NzE5NTJkJyxcbn07XG5cbmNvbnN0IGdldFR4TGlzdFJlc3BvbnNlTm9uQml0R29SZWNvdmVyeTogUmVjb3JkPHN0cmluZywgdW5rbm93bj4gPSB7XG4gIHN0YXR1czogJzEnLFxuICByZXN1bHQ6IFtcbiAgICB7XG4gICAgICBoYXNoOiAnMHhlZGU4NTVkNDNkNzBlYTFiYjc1ZGI2M2Q0Zjc1MTEzZGFlMDg0NWYwZDRiZGIwYjJkOGJkYTU1MjQ5YzcwODEyJyxcbiAgICAgIG5vbmNlOiAnMjMnLFxuICAgICAgZnJvbTogJzB4NDQ3N2JjM2UyNDcyYjJjNTU4MGMwMTA1MjZkZmM1NjE0ODcxOTUyZCcsXG4gICAgfSxcbiAgXSxcbiAgbWVzc2FnZTogJ09LJyxcbn07XG5cbmNvbnN0IGdldEJhbGFuY2VSZXF1ZXN0Tm9uQml0R29SZWNvdmVyeTogUmVjb3JkPHN0cmluZywgc3RyaW5nPiA9IHtcbiAgY2hhaW5pZDogJzUxJyxcbiAgbW9kdWxlOiAnYWNjb3VudCcsXG4gIGFjdGlvbjogJ2JhbGFuY2UnLFxuICBhZGRyZXNzOiAnMHg0NDc3YmMzZTI0NzJiMmM1NTgwYzAxMDUyNmRmYzU2MTQ4NzE5NTJkJyxcbn07XG5cbmNvbnN0IGdldEJhbGFuY2VSZXNwb25zZU5vbkJpdEdvUmVjb3Zlcnk6IFJlY29yZDxzdHJpbmcsIHVua25vd24+ID0ge1xuICBzdGF0dXM6ICcxJyxcbiAgcmVzdWx0OiAnMTAwMDAwMDAwMDAwMDAwMDAwJyxcbiAgbWVzc2FnZTogJ09LJyxcbn07XG5cbi8vIE1vY2sgZGF0YSBmb3IgdHhkYzp0bXQgdG9rZW4gdHJhbnNmZXIgVFNTIHRyYW5zYWN0aW9uXG5leHBvcnQgY29uc3QgbW9ja1Rva2VuVHJhbnNmZXJEYXRhID0ge1xuICB0eFJlcXVlc3RJZDogJzI0NzUzNjhkLWY2MDQtNDZlMy1hNzQzLWUzMmY2NjNmYTM1MCcsXG4gIHdhbGxldElkOiAnNjk1ZTFjYTRmYjRhNzM5YzhjNmY5YjQ5MTIwYzU1YzcnLFxuICBzZXJpYWxpemVkVHhIZXg6XG4gICAgJ2Y4NmEwNDg1MDQ1ZDk2NGI4MDgzMDYxYTgwOTRiMjgzZWM4ZGFkNjQ0ZWZmYzVjNGM1MGJiN2JiMjE0NDJhYzNjMmRiODBiODQ0YTkwNTljYmIwMDAwMDAwMDAwMDAwMDAwMDAwMDAwMDA0MjFjZGY1ZTg5MDA3MGMyOGRiMGZkOGU0YmY4N2RlYWMwY2QwZmZjMDAwMDAwMDAwMDAwMDAwMDAwMDAwMDAwMDAwMDAwMDAwMDAwMDAwMDAwMDAwMDAwMDAwMDAwMDAwMDBmNDI0MDgwODA4MCcsXG4gIHNpZ25hYmxlSGV4OlxuICAgICdmODZhMDQ4NTA0NWQ5NjRiODA4MzA2MWE4MDk0YjI4M2VjOGRhZDY0NGVmZmM1YzRjNTBiYjdiYjIxNDQyYWMzYzJkYjgwYjg0NGE5MDU5Y2JiMDAwMDAwMDAwMDAwMDAwMDAwMDAwMDAwNDIxY2RmNWU4OTAwNzBjMjhkYjBmZDhlNGJmODdkZWFjMGNkMGZmYzAwMDAwMDAwMDAwMDAwMDAwMDAwMDAwMDAwMDAwMDAwMDAwMDAwMDAwMDAwMDAwMDAwMDAwMDAwMDAwZjQyNDAzMzgwODAnLFxuICB0b2tlbkNvbnRyYWN0QWRkcmVzczogJzB4YjI4M2VjOGRhZDY0NGVmZmM1YzRjNTBiYjdiYjIxNDQyYWMzYzJkYicsXG4gIHJlY2lwaWVudEFkZHJlc3M6ICcweDQyMWNkZjVlODkwMDcwYzI4ZGIwZmQ4ZTRiZjg3ZGVhYzBjZDBmZmMnLFxuICBzZW5kZXJBZGRyZXNzOiAnMHg2YWFmYWRkZjU0NWY5Njc3MjE0MGYwMDA4MTkwYzE3NmEwNjVkZjlhJyxcbiAgdG9rZW5BbW91bnQ6ICcxMDAwMDAwJyxcbiAgZmVlSW5mbzoge1xuICAgIGZlZTogNzUwMDAwMDAwMDAwMDAwMCxcbiAgICBmZWVTdHJpbmc6ICc3NTAwMDAwMDAwMDAwMDAwJyxcbiAgfSxcbiAgdHhQcmVidWlsZDoge1xuICAgIHR4SGV4OlxuICAgICAgJ2Y4NmEwNDg1MDQ1ZDk2NGI4MDgzMDYxYTgwOTRiMjgzZWM4ZGFkNjQ0ZWZmYzVjNGM1MGJiN2JiMjE0NDJhYzNjMmRiODBiODQ0YTkwNTljYmIwMDAwMDAwMDAwMDAwMDAwMDAwMDAwMDA0MjFjZGY1ZTg5MDA3MGMyOGRiMGZkOGU0YmY4N2RlYWMwY2QwZmZjMDAwMDAwMDAwMDAwMDAwMDAwMDAwMDAwMDAwMDAwMDAwMDAwMDAwMDAwMDAwMDAwMDAwMDAwMDAwMDBmNDI0MDgwODA4MCcsXG4gICAgcmVjaXBpZW50czogW1xuICAgICAge1xuICAgICAgICBhZGRyZXNzOiAnMHg0MjFjZGY1ZTg5MDA3MGMyOGRiMGZkOGU0YmY4N2RlYWMwY2QwZmZjJyxcbiAgICAgICAgYW1vdW50OiAnMTAwMDAwMCcsXG4gICAgICB9LFxuICAgIF0sXG4gIH0sXG59O1xuXG5leHBvcnQgY29uc3QgbW9ja0RhdGFOb25CaXRHb1JlY292ZXJ5ID0ge1xuICByZWNvdmVyeURlc3RpbmF0aW9uOiAnMHhkNzZiNTg2OTAxODUwZjJjNjU2ZGIwY2JlZjc5NWMwODUxYmJlYzM1JyxcbiAgdXNlcktleURhdGE6XG4gICAgJ3tcIml2XCI6XCJYZVh3RDVCNDY1d1l2YW85V0ZaQzdBPT1cIixcInZcIjoxLFwiaXRlclwiOjEwMDAwLFwia3NcIjoyNTYsXCJ0c1wiOjY0LFwibW9kZVwiOlwiY2NtXCIsXCJhZGF0YVwiOlwiXCIsXCJjaXBoZXJcIjpcImFlc1wiLFwic2FsdFwiOlwiY2FEdHpCQ0YzSUE9XCIsXCJjdFwiOlwiMHFyMFlWMkRnTjY4RjlsdU5wakZRaHdEVElYd3lUVFlkUWlydmJnSVRIcUlEbUlUbVYxSU1na0tJZHpTWkJmbUxrQjZiRzQ2b1ZGNHNuVkc3bFhFSnoydHdydXRJMDFnNTl4anc4OFVMZ1I1d1Y1WmRGckdjbU5adk9RMUg1aW1vV0dTOGJWS09ObWVGNTVUQmdpNDlyOXgzZHNtZ1d2Si9FSGVBcGovRnJBUDFCTFgvUmdsNTdrWnFuTm9yeWw1NVA4TDJjSnRKRTF3ZURCRCsvR3NnZ2RyTy9kWUJtaWhLVFd5VEJWYTdVQklJZ1Y1d09kNFJYYlpOMUhnMlZjMGJZNTZLcnBaYlkxQ3NkUWlJd0gzdGtLRlBkcXRobEhWRWZTOFhWaWFZVmwwR28zQy9tVU1ZWkg3Q1RnL3M0TE1wZGxXemgzaVJubUdlcmN2SUZaQmZjZWhnTlZ2OUgvT2N0WVpuS2ZVZEk1bVpzVkd4UVJJTVdyOG9GYm1qUjNwWUo5NG94Uzhhc3NBemw3aE5JNFJKaS91NE45LzVWSklpLy8wNjl6c01zZ0ErazRiM3UzeHZpdmtUak81c3NjQVBzL1NwMG1iNVFMUWhQNDhEL3NISVl3aFFpVGhKYUgrZmxTb1VRdTVMTldtdWNtWXIwOGxSUmlJMDdPN0RaQVkycHBsTFN2QmZrckJ0Z1RnaStyTE45NWxLa3hpN1BZVEdXdWVrMVNkL1hpWGl0NkVKNUZJbVlIMmVLRVZnYXRZdktmai9CZE5KMmlIbWVheWthanRqcHIyMWx0MElxazk4aVpMWmZDcDV3NGhmSEhIQjRRQ3JCekNBZUcyTUVQcW1yQU42N3o0Z014VWJrSStqOWxZcDVTeXZsRm1ESW03OFN5UTYwMzcxV2ZyKzdiNCt3RnFQcTlmdW1YQlo0aTB4WWJjV1RyS2pZcm41Yk81bzNMV2lSb2g3RVc4bXpiTUlDMm0vRHdJd2RDSG9kYno0ZzMxUHNuazZZazZVcUVNcTVKaE9vVUpZdVZoWXRoTm1iUmxJNTlVRGcrcnovSE85blluWnFzVWd1YlNLY1pBcnFNMUo0VDQrRURLdUh0Z25DUW0yaHFIbHNKdSsvbjczalUzM0dFbTg2cERkY2I4dWRIc2ZQQ3ZoRUl1THc2WnlUaGlYOEpFT0NpOFVlYjBHUEwzMU1Ta0o3TDdjT2l6Z3A2bEhnczRuWm9yWmZVSUtqRGQzdHdjcEJOWGpUMTVLRVFiclc4UlFDaFhtVmwwYjVOOEJBb202ZTlYcHoya0RSR2J2YllmQk9kaWh0NVZyNVNtN3ByQVFWVkNaVFdxNi9xT1pGV3I3TEorQ2R3MXFZdDY0VUZjQkhOdGFYM2Q1V09NTk5NcWVzcmdsVlRXN3cyR3NjdTdYYXhvQTRjVE9Ldk1lbUcxY1dUYWcza3I4b05ndHo1Z1hzZmJTbzdDSnJOOHZ3PT1cIn0nLFxuICBiYWNrdXBLZXlEYXRhOlxuICAgICd7XCJpdlwiOlwiSjMyVklKaE85Q2JmNWJxY3Y3NUthZz09XCIsXCJ2XCI6MSxcIml0ZXJcIjoxMDAwMCxcImtzXCI6MjU2LFwidHNcIjo2NCxcIm1vZGVcIjpcImNjbVwiLFwiYWRhdGFcIjpcIlwiLFwiY2lwaGVyXCI6XCJhZXNcIixcInNhbHRcIjpcIlpRNVZzSGRYTTRRPVwiLFwiY3RcIjpcIlhUZ0FVeThUWkFMS3R0L1B0SkdBV2JIZnVFeEg1QzV5dzN5OEVyeXJjWTN1WmRla3RsM1drTDRLSEhHVHRMOXl6c3NDVE9XVU1UZW1vQUtpcGQrVy8zbXBadVE4OHArbGxvSWdVN1RjZTNSTEJHK2d1NjY1YnN2VFV1VnBmTXJwWkh4RFhYVk16d29VVkhheHdmdnUydGdkdURucGtEL0JYMlJONXFmSTZQNnp6NXI4VXVXYmlEUEtFYXFwY0FIUStSQml0QlFpT3hOQWxSTllleG5VeDFwQ3FjSzA4aHFycWRRdng3ZWxYWGRDSTNUd2VwR1c3UXdSeldhOXB4dk05ZDg1QVdFU3VlSjJCNEpyWjVia3JJelhpeEdKY29VQUpWdkdmRDY5em9MVUg5ZWlubk1hZnBvY0VUQlVEUXlldkMvai8xRndnWlVDZUdjYjRVOU45dFFKdFIwZm96emdwQW85MW5XQTVVZmtEMitoelJ2ejJwMURtYys0Yk5iNnMvN3ZLK0JJT2RwZTRibHpJNDNQeE1Mb0JHa0VRSGxHSFlDck9VbmJWN2RjeGx5UHYwcWZvbThLNGY2Lzc0WUVLaU1QandBM3NDY250V2JvVzhnVVBIRjJ4eC9XQWdtSEk5RE9pWHNDSlpNSHg0R2labVkvcFI5UlZlL09lRkFxUExXSm9UNkthaXpUSkQzU280L0c1b0hLUGdUUWJNSVBpMWxZdHFLZE91aHljSVNzYUVnbmtHMWE4VHE1Q04wdGs1Vnl3U21qNGtTcnFxamNwN2tiQVcrVmlhTmtaTHVTaWJvbUs5QXZ1T0drRVpCcURFdXlGSm5TNG9heVFUTHhuc3R6TzFKSkdobXJDc2tIOUIvUUlJclVWbDFJT3YvSVZ5UGc0TTdUMWcwK1lmSGRBWGR1TFh1OWJqSGtxekdhU1FadTM1YnM1UUt5MGJLRWhBd29qK3pnWUFGL2daQkgwL2lQenJXTTJ4dS9ITWVRS3dJMEtGTE9pQngzY01tTllFK0ZiNnZDanBWWEJUWVlVQ0JPalJuckF1Ui9sYzNBbmpBZWZDTUFEODkrRlErUVc1SXpadjk3bHJTdzBSYitESWN0ZlhkZFVLSzd5eUJlOENjWldVMWRHQVlzYi9oaytINWxUWkpCdXI1TTNhMXZ6UE1pNjhIS25SdDdYWm15QnN2UEE4dDBKVkptbGMwUmVqcURyY3BzNHVLaktkTWFETk92QnptRWlqZFZ2OE41cTBOZyt5SHdxM0JvbHFvWW40bVZKT3JNdVJsWnQ0cE9Ea0k4dU9VMUhhL1ZTdEx6aFQySEZleForWTBKek0wRFM1aHN5Z0h0NER6Ni9SZlpUS0hZdnh6dVJpSE5MYm1OY09CdlZiQk9MMkxtK0RsbzNmRnVWRDNmUzA4dkp1YWZjL3VBZmF0cFJ3UnFnRS9FenZaT3BuWnlIY3I0bFVWRWhSckRZdz09XCJ9JyxcbiAgd2FsbGV0UGFzc3BocmFzZTogJ3ByaXRodmlzaGV0MjUwMycsXG4gIHdhbGxldFJvb3RBZGRyZXNzOiAnMHg0NDc3YmMzZTI0NzJiMmM1NTgwYzAxMDUyNmRmYzU2MTQ4NzE5NTJkJyxcbiAgZ2V0VHhMaXN0UmVxdWVzdDogZ2V0VHhMaXN0UmVxdWVzdE5vbkJpdEdvUmVjb3ZlcnksXG4gIGdldFR4TGlzdFJlc3BvbnNlOiBnZXRUeExpc3RSZXNwb25zZU5vbkJpdEdvUmVjb3ZlcnksXG4gIGdldEJhbGFuY2VSZXF1ZXN0OiBnZXRCYWxhbmNlUmVxdWVzdE5vbkJpdEdvUmVjb3ZlcnksXG4gIGdldEJhbGFuY2VSZXNwb25zZTogZ2V0QmFsYW5jZVJlc3BvbnNlTm9uQml0R29SZWNvdmVyeSxcbn07XG4iXX0=