"use strict";
Object.defineProperty(exports, "__esModule", { value: true });
exports.unsignedStakingTransaction = exports.updatedStakingRequest = void 0;
exports.updatedStakingRequest = {
    id: '52676686-0d86-4ae6-8216-3465cb228615',
    stakingRequestId: '75de4133-6bea-4507-841a-b19f7672e1f7',
    delegationId: '27d726f9-3061-4f73-b40c-703962449b24',
    createdDate: '2025-03-25T13:43:07.942063Z',
    transactionType: 'authorize',
    status: 'READY',
    statusModifiedDate: '2025-03-25T13:43:07.942063Z',
    amount: '1000000000000000000',
    buildParams: {
        recipients: [
            {
                amount: '0',
                address: '0x75bb6dcA2cD6F9a0189c478bBb8F7EE2fEF07C78',
                data: '0x095ea7b3000000000000000000000000140d63efb5b24314f6f62dbadb383dba2e49d7ee0000000000000000000000000000000000000000000000000de0b6b3a7640000',
            },
        ],
        stakingParams: {
            requestId: '75de4133-6bea-4507-841a-b19f7672e1f7',
            amount: '1000000000000000000',
            coin: 'topeth:wct',
            validator: '0x1d1a245741bd7d603747a23d30f4c91682a29926',
            actionType: 'wct_authorize',
        },
    },
};
exports.unsignedStakingTransaction = {
    txHex: '0x02f9019083aa37dc718206a882089e83030d40941d1a245741bd7d603747a23d30f4c91682a2992680b901643912521500000000000000000000000075bb6dca2cd6f9a0189c478bbb8f7ee2fef07c78000000000000000000000000000000000000000000000000000000000000000000000000000000000000000000000000000000000000000000000000000000c00000000000000000000000000000000000000000000000000000000067ebedc3000000000000000000000000000000000000000000000000000000000000000600000000000000000000000000000000000000000000000000000000000001400000000000000000000000000000000000000000000000000000000000000044095ea7b3000000000000000000000000140d63efb5b24314f6f62dbadb383dba2e49d7ee0000000000000000000000000000000000000000000000000de0b6b3a7640000000000000000000000000000000000000000000000000000000000000000000000000000000000000000000000000000000000000000000000000000c0808080',
    txInfo: {
        nonce: 113,
        gasLimit: '200000',
        value: '0',
        data: '0x3912521500000000000000000000000075bb6dca2cd6f9a0189c478bbb8f7ee2fef07c78000000000000000000000000000000000000000000000000000000000000000000000000000000000000000000000000000000000000000000000000000000c00000000000000000000000000000000000000000000000000000000067ebedc3000000000000000000000000000000000000000000000000000000000000000600000000000000000000000000000000000000000000000000000000000001400000000000000000000000000000000000000000000000000000000000000044095ea7b3000000000000000000000000140d63efb5b24314f6f62dbadb383dba2e49d7ee0000000000000000000000000000000000000000000000000de0b6b3a7640000000000000000000000000000000000000000000000000000000000000000000000000000000000000000000000000000000000000000000000000000',
        id: '0xdddb88e48548a0c326c19b876886c694c3d88e64f7eafa11bbd274257728ce12',
        to: '0x1d1a245741bd7d603747a23d30f4c91682a29926',
        chainId: '0xaa37dc',
        _type: 'EIP1559',
        maxFeePerGas: '2206',
        maxPriorityFeePerGas: '1704',
    },
    feeInfo: {
        date: '2025-03-25T13:44:35.058Z',
        gasPrice: '1000251',
        baseFee: '251',
        gasUsedRatio: '0.00073025',
        safeLowMinerTip: '1136',
        normalMinerTip: '1136',
        standardMinerTip: '1136',
        fastestMinerTip: '1136',
        ludicrousMinerTip: '1010002',
    },
    eip1559: {
        maxPriorityFeePerGas: '1704',
        maxFeePerGas: '2206',
    },
    recipients: [
        {
            amount: '0',
            address: '0x75bb6dcA2cD6F9a0189c478bBb8F7EE2fEF07C78',
            data: '0x095ea7b3000000000000000000000000140d63efb5b24314f6f62dbadb383dba2e49d7ee0000000000000000000000000000000000000000000000000de0b6b3a7640000',
        },
    ],
    nextContractSequenceId: 6,
    gasLimit: 200000,
    isBatch: false,
    stakingParams: {
        requestId: '75de4133-6bea-4507-841a-b19f7672e1f7',
        amount: '1000000000000000000',
        coin: 'topeth:wct',
        validator: '0x1d1a245741bd7d603747a23d30f4c91682a29926',
        actionType: 'wct_authorize',
    },
    coin: 'topeth',
};
//# sourceMappingURL=data:application/json;base64,eyJ2ZXJzaW9uIjozLCJmaWxlIjoidG9wZXRoU3Rha2luZ0ZpeHR1cmVzLmpzIiwic291cmNlUm9vdCI6IiIsInNvdXJjZXMiOlsiLi4vLi4vLi4vLi4vLi4vdGVzdC92Mi9maXh0dXJlcy9zdGFraW5nL3RvcGV0aFN0YWtpbmdGaXh0dXJlcy50cyJdLCJuYW1lcyI6W10sIm1hcHBpbmdzIjoiOzs7QUFBYSxRQUFBLHFCQUFxQixHQUFHO0lBQ25DLEVBQUUsRUFBRSxzQ0FBc0M7SUFDMUMsZ0JBQWdCLEVBQUUsc0NBQXNDO0lBQ3hELFlBQVksRUFBRSxzQ0FBc0M7SUFDcEQsV0FBVyxFQUFFLDZCQUE2QjtJQUMxQyxlQUFlLEVBQUUsV0FBVztJQUM1QixNQUFNLEVBQUUsT0FBTztJQUNmLGtCQUFrQixFQUFFLDZCQUE2QjtJQUNqRCxNQUFNLEVBQUUscUJBQXFCO0lBQzdCLFdBQVcsRUFBRTtRQUNYLFVBQVUsRUFBRTtZQUNWO2dCQUNFLE1BQU0sRUFBRSxHQUFHO2dCQUNYLE9BQU8sRUFBRSw0Q0FBNEM7Z0JBQ3JELElBQUksRUFBRSw0SUFBNEk7YUFDbko7U0FDRjtRQUNELGFBQWEsRUFBRTtZQUNiLFNBQVMsRUFBRSxzQ0FBc0M7WUFDakQsTUFBTSxFQUFFLHFCQUFxQjtZQUM3QixJQUFJLEVBQUUsWUFBWTtZQUNsQixTQUFTLEVBQUUsNENBQTRDO1lBQ3ZELFVBQVUsRUFBRSxlQUFlO1NBQzVCO0tBQ0Y7Q0FDRixDQUFDO0FBRVcsUUFBQSwwQkFBMEIsR0FBRztJQUN4QyxLQUFLLEVBQ0gsNHlCQUE0eUI7SUFDOXlCLE1BQU0sRUFBRTtRQUNOLEtBQUssRUFBRSxHQUFHO1FBQ1YsUUFBUSxFQUFFLFFBQVE7UUFDbEIsS0FBSyxFQUFFLEdBQUc7UUFDVixJQUFJLEVBQUUsNHNCQUE0c0I7UUFDbHRCLEVBQUUsRUFBRSxvRUFBb0U7UUFDeEUsRUFBRSxFQUFFLDRDQUE0QztRQUNoRCxPQUFPLEVBQUUsVUFBVTtRQUNuQixLQUFLLEVBQUUsU0FBUztRQUNoQixZQUFZLEVBQUUsTUFBTTtRQUNwQixvQkFBb0IsRUFBRSxNQUFNO0tBQzdCO0lBQ0QsT0FBTyxFQUFFO1FBQ1AsSUFBSSxFQUFFLDBCQUEwQjtRQUNoQyxRQUFRLEVBQUUsU0FBUztRQUNuQixPQUFPLEVBQUUsS0FBSztRQUNkLFlBQVksRUFBRSxZQUFZO1FBQzFCLGVBQWUsRUFBRSxNQUFNO1FBQ3ZCLGNBQWMsRUFBRSxNQUFNO1FBQ3RCLGdCQUFnQixFQUFFLE1BQU07UUFDeEIsZUFBZSxFQUFFLE1BQU07UUFDdkIsaUJBQWlCLEVBQUUsU0FBUztLQUM3QjtJQUNELE9BQU8sRUFBRTtRQUNQLG9CQUFvQixFQUFFLE1BQU07UUFDNUIsWUFBWSxFQUFFLE1BQU07S0FDckI7SUFDRCxVQUFVLEVBQUU7UUFDVjtZQUNFLE1BQU0sRUFBRSxHQUFHO1lBQ1gsT0FBTyxFQUFFLDRDQUE0QztZQUNyRCxJQUFJLEVBQUUsNElBQTRJO1NBQ25KO0tBQ0Y7SUFDRCxzQkFBc0IsRUFBRSxDQUFDO0lBQ3pCLFFBQVEsRUFBRSxNQUFNO0lBQ2hCLE9BQU8sRUFBRSxLQUFLO0lBQ2QsYUFBYSxFQUFFO1FBQ2IsU0FBUyxFQUFFLHNDQUFzQztRQUNqRCxNQUFNLEVBQUUscUJBQXFCO1FBQzdCLElBQUksRUFBRSxZQUFZO1FBQ2xCLFNBQVMsRUFBRSw0Q0FBNEM7UUFDdkQsVUFBVSxFQUFFLGVBQWU7S0FDNUI7SUFDRCxJQUFJLEVBQUUsUUFBUTtDQUNmLENBQUMiLCJzb3VyY2VzQ29udGVudCI6WyJleHBvcnQgY29uc3QgdXBkYXRlZFN0YWtpbmdSZXF1ZXN0ID0ge1xuICBpZDogJzUyNjc2Njg2LTBkODYtNGFlNi04MjE2LTM0NjVjYjIyODYxNScsXG4gIHN0YWtpbmdSZXF1ZXN0SWQ6ICc3NWRlNDEzMy02YmVhLTQ1MDctODQxYS1iMTlmNzY3MmUxZjcnLFxuICBkZWxlZ2F0aW9uSWQ6ICcyN2Q3MjZmOS0zMDYxLTRmNzMtYjQwYy03MDM5NjI0NDliMjQnLFxuICBjcmVhdGVkRGF0ZTogJzIwMjUtMDMtMjVUMTM6NDM6MDcuOTQyMDYzWicsXG4gIHRyYW5zYWN0aW9uVHlwZTogJ2F1dGhvcml6ZScsXG4gIHN0YXR1czogJ1JFQURZJyxcbiAgc3RhdHVzTW9kaWZpZWREYXRlOiAnMjAyNS0wMy0yNVQxMzo0MzowNy45NDIwNjNaJyxcbiAgYW1vdW50OiAnMTAwMDAwMDAwMDAwMDAwMDAwMCcsXG4gIGJ1aWxkUGFyYW1zOiB7XG4gICAgcmVjaXBpZW50czogW1xuICAgICAge1xuICAgICAgICBhbW91bnQ6ICcwJyxcbiAgICAgICAgYWRkcmVzczogJzB4NzViYjZkY0EyY0Q2RjlhMDE4OWM0NzhiQmI4RjdFRTJmRUYwN0M3OCcsXG4gICAgICAgIGRhdGE6ICcweDA5NWVhN2IzMDAwMDAwMDAwMDAwMDAwMDAwMDAwMDAwMTQwZDYzZWZiNWIyNDMxNGY2ZjYyZGJhZGIzODNkYmEyZTQ5ZDdlZTAwMDAwMDAwMDAwMDAwMDAwMDAwMDAwMDAwMDAwMDAwMDAwMDAwMDAwMDAwMDAwMDBkZTBiNmIzYTc2NDAwMDAnLFxuICAgICAgfSxcbiAgICBdLFxuICAgIHN0YWtpbmdQYXJhbXM6IHtcbiAgICAgIHJlcXVlc3RJZDogJzc1ZGU0MTMzLTZiZWEtNDUwNy04NDFhLWIxOWY3NjcyZTFmNycsXG4gICAgICBhbW91bnQ6ICcxMDAwMDAwMDAwMDAwMDAwMDAwJyxcbiAgICAgIGNvaW46ICd0b3BldGg6d2N0JyxcbiAgICAgIHZhbGlkYXRvcjogJzB4MWQxYTI0NTc0MWJkN2Q2MDM3NDdhMjNkMzBmNGM5MTY4MmEyOTkyNicsXG4gICAgICBhY3Rpb25UeXBlOiAnd2N0X2F1dGhvcml6ZScsXG4gICAgfSxcbiAgfSxcbn07XG5cbmV4cG9ydCBjb25zdCB1bnNpZ25lZFN0YWtpbmdUcmFuc2FjdGlvbiA9IHtcbiAgdHhIZXg6XG4gICAgJzB4MDJmOTAxOTA4M2FhMzdkYzcxODIwNmE4ODIwODllODMwMzBkNDA5NDFkMWEyNDU3NDFiZDdkNjAzNzQ3YTIzZDMwZjRjOTE2ODJhMjk5MjY4MGI5MDE2NDM5MTI1MjE1MDAwMDAwMDAwMDAwMDAwMDAwMDAwMDAwNzViYjZkY2EyY2Q2ZjlhMDE4OWM0NzhiYmI4ZjdlZTJmZWYwN2M3ODAwMDAwMDAwMDAwMDAwMDAwMDAwMDAwMDAwMDAwMDAwMDAwMDAwMDAwMDAwMDAwMDAwMDAwMDAwMDAwMDAwMDAwMDAwMDAwMDAwMDAwMDAwMDAwMDAwMDAwMDAwMDAwMDAwMDAwMDAwMDAwMDAwMDAwMDAwMDAwMDAwMDAwMGMwMDAwMDAwMDAwMDAwMDAwMDAwMDAwMDAwMDAwMDAwMDAwMDAwMDAwMDAwMDAwMDAwMDAwMDAwMDA2N2ViZWRjMzAwMDAwMDAwMDAwMDAwMDAwMDAwMDAwMDAwMDAwMDAwMDAwMDAwMDAwMDAwMDAwMDAwMDAwMDAwMDAwMDAwMDYwMDAwMDAwMDAwMDAwMDAwMDAwMDAwMDAwMDAwMDAwMDAwMDAwMDAwMDAwMDAwMDAwMDAwMDAwMDAwMDAwMTQwMDAwMDAwMDAwMDAwMDAwMDAwMDAwMDAwMDAwMDAwMDAwMDAwMDAwMDAwMDAwMDAwMDAwMDAwMDAwMDAwMDA0NDA5NWVhN2IzMDAwMDAwMDAwMDAwMDAwMDAwMDAwMDAwMTQwZDYzZWZiNWIyNDMxNGY2ZjYyZGJhZGIzODNkYmEyZTQ5ZDdlZTAwMDAwMDAwMDAwMDAwMDAwMDAwMDAwMDAwMDAwMDAwMDAwMDAwMDAwMDAwMDAwMDBkZTBiNmIzYTc2NDAwMDAwMDAwMDAwMDAwMDAwMDAwMDAwMDAwMDAwMDAwMDAwMDAwMDAwMDAwMDAwMDAwMDAwMDAwMDAwMDAwMDAwMDAwMDAwMDAwMDAwMDAwMDAwMDAwMDAwMDAwMDAwMDAwMDAwMDAwMDAwMDAwMDAwMDAwMDAwMDAwMDBjMDgwODA4MCcsXG4gIHR4SW5mbzoge1xuICAgIG5vbmNlOiAxMTMsXG4gICAgZ2FzTGltaXQ6ICcyMDAwMDAnLFxuICAgIHZhbHVlOiAnMCcsXG4gICAgZGF0YTogJzB4MzkxMjUyMTUwMDAwMDAwMDAwMDAwMDAwMDAwMDAwMDA3NWJiNmRjYTJjZDZmOWEwMTg5YzQ3OGJiYjhmN2VlMmZlZjA3Yzc4MDAwMDAwMDAwMDAwMDAwMDAwMDAwMDAwMDAwMDAwMDAwMDAwMDAwMDAwMDAwMDAwMDAwMDAwMDAwMDAwMDAwMDAwMDAwMDAwMDAwMDAwMDAwMDAwMDAwMDAwMDAwMDAwMDAwMDAwMDAwMDAwMDAwMDAwMDAwMDAwMDAwMDAwYzAwMDAwMDAwMDAwMDAwMDAwMDAwMDAwMDAwMDAwMDAwMDAwMDAwMDAwMDAwMDAwMDAwMDAwMDAwMDY3ZWJlZGMzMDAwMDAwMDAwMDAwMDAwMDAwMDAwMDAwMDAwMDAwMDAwMDAwMDAwMDAwMDAwMDAwMDAwMDAwMDAwMDAwMDAwNjAwMDAwMDAwMDAwMDAwMDAwMDAwMDAwMDAwMDAwMDAwMDAwMDAwMDAwMDAwMDAwMDAwMDAwMDAwMDAwMDAxNDAwMDAwMDAwMDAwMDAwMDAwMDAwMDAwMDAwMDAwMDAwMDAwMDAwMDAwMDAwMDAwMDAwMDAwMDAwMDAwMDAwMDQ0MDk1ZWE3YjMwMDAwMDAwMDAwMDAwMDAwMDAwMDAwMDAxNDBkNjNlZmI1YjI0MzE0ZjZmNjJkYmFkYjM4M2RiYTJlNDlkN2VlMDAwMDAwMDAwMDAwMDAwMDAwMDAwMDAwMDAwMDAwMDAwMDAwMDAwMDAwMDAwMDAwMGRlMGI2YjNhNzY0MDAwMDAwMDAwMDAwMDAwMDAwMDAwMDAwMDAwMDAwMDAwMDAwMDAwMDAwMDAwMDAwMDAwMDAwMDAwMDAwMDAwMDAwMDAwMDAwMDAwMDAwMDAwMDAwMDAwMDAwMDAwMDAwMDAwMDAwMDAwMDAwMDAwMDAwMDAwMDAwMDAwMCcsXG4gICAgaWQ6ICcweGRkZGI4OGU0ODU0OGEwYzMyNmMxOWI4NzY4ODZjNjk0YzNkODhlNjRmN2VhZmExMWJiZDI3NDI1NzcyOGNlMTInLFxuICAgIHRvOiAnMHgxZDFhMjQ1NzQxYmQ3ZDYwMzc0N2EyM2QzMGY0YzkxNjgyYTI5OTI2JyxcbiAgICBjaGFpbklkOiAnMHhhYTM3ZGMnLFxuICAgIF90eXBlOiAnRUlQMTU1OScsXG4gICAgbWF4RmVlUGVyR2FzOiAnMjIwNicsXG4gICAgbWF4UHJpb3JpdHlGZWVQZXJHYXM6ICcxNzA0JyxcbiAgfSxcbiAgZmVlSW5mbzoge1xuICAgIGRhdGU6ICcyMDI1LTAzLTI1VDEzOjQ0OjM1LjA1OFonLFxuICAgIGdhc1ByaWNlOiAnMTAwMDI1MScsXG4gICAgYmFzZUZlZTogJzI1MScsXG4gICAgZ2FzVXNlZFJhdGlvOiAnMC4wMDA3MzAyNScsXG4gICAgc2FmZUxvd01pbmVyVGlwOiAnMTEzNicsXG4gICAgbm9ybWFsTWluZXJUaXA6ICcxMTM2JyxcbiAgICBzdGFuZGFyZE1pbmVyVGlwOiAnMTEzNicsXG4gICAgZmFzdGVzdE1pbmVyVGlwOiAnMTEzNicsXG4gICAgbHVkaWNyb3VzTWluZXJUaXA6ICcxMDEwMDAyJyxcbiAgfSxcbiAgZWlwMTU1OToge1xuICAgIG1heFByaW9yaXR5RmVlUGVyR2FzOiAnMTcwNCcsXG4gICAgbWF4RmVlUGVyR2FzOiAnMjIwNicsXG4gIH0sXG4gIHJlY2lwaWVudHM6IFtcbiAgICB7XG4gICAgICBhbW91bnQ6ICcwJyxcbiAgICAgIGFkZHJlc3M6ICcweDc1YmI2ZGNBMmNENkY5YTAxODljNDc4YkJiOEY3RUUyZkVGMDdDNzgnLFxuICAgICAgZGF0YTogJzB4MDk1ZWE3YjMwMDAwMDAwMDAwMDAwMDAwMDAwMDAwMDAxNDBkNjNlZmI1YjI0MzE0ZjZmNjJkYmFkYjM4M2RiYTJlNDlkN2VlMDAwMDAwMDAwMDAwMDAwMDAwMDAwMDAwMDAwMDAwMDAwMDAwMDAwMDAwMDAwMDAwMGRlMGI2YjNhNzY0MDAwMCcsXG4gICAgfSxcbiAgXSxcbiAgbmV4dENvbnRyYWN0U2VxdWVuY2VJZDogNixcbiAgZ2FzTGltaXQ6IDIwMDAwMCxcbiAgaXNCYXRjaDogZmFsc2UsXG4gIHN0YWtpbmdQYXJhbXM6IHtcbiAgICByZXF1ZXN0SWQ6ICc3NWRlNDEzMy02YmVhLTQ1MDctODQxYS1iMTlmNzY3MmUxZjcnLFxuICAgIGFtb3VudDogJzEwMDAwMDAwMDAwMDAwMDAwMDAnLFxuICAgIGNvaW46ICd0b3BldGg6d2N0JyxcbiAgICB2YWxpZGF0b3I6ICcweDFkMWEyNDU3NDFiZDdkNjAzNzQ3YTIzZDMwZjRjOTE2ODJhMjk5MjYnLFxuICAgIGFjdGlvblR5cGU6ICd3Y3RfYXV0aG9yaXplJyxcbiAgfSxcbiAgY29pbjogJ3RvcGV0aCcsXG59O1xuIl19